{
  "_format": "hh-sol-artifact-1",
  "contractName": "Alarm",
  "sourceName": "contracts/Alarm.sol",
  "abi": [
    {
      "inputs": [],
      "stateMutability": "payable",
      "type": "constructor"
    },
    {
      "inputs": [
        {
          "internalType": "address",
          "name": "",
          "type": "address"
        }
      ],
      "name": "amountDeposited",
      "outputs": [
        {
          "internalType": "uint256",
          "name": "",
          "type": "uint256"
        }
      ],
      "stateMutability": "view",
      "type": "function"
    },
    {
      "inputs": [],
      "name": "balanceSC",
      "outputs": [
        {
          "internalType": "uint256",
          "name": "",
          "type": "uint256"
        }
      ],
      "stateMutability": "view",
      "type": "function"
    },
    {
      "inputs": [],
      "name": "checkCompletion",
      "outputs": [],
      "stateMutability": "nonpayable",
      "type": "function"
    },
    {
      "inputs": [],
      "name": "getAmountDeposited",
      "outputs": [
        {
          "internalType": "uint256",
          "name": "",
          "type": "uint256"
        }
      ],
      "stateMutability": "view",
      "type": "function"
    },
    {
      "inputs": [],
      "name": "getDay",
      "outputs": [
        {
          "internalType": "uint256",
          "name": "",
          "type": "uint256"
        }
      ],
      "stateMutability": "view",
      "type": "function"
    },
    {
      "inputs": [],
      "name": "getTime",
      "outputs": [
        {
          "internalType": "uint256",
          "name": "",
          "type": "uint256"
        }
      ],
      "stateMutability": "view",
      "type": "function"
    },
    {
      "inputs": [],
      "name": "recordWakeUpStatus",
      "outputs": [],
      "stateMutability": "nonpayable",
      "type": "function"
    },
    {
      "inputs": [
        {
          "internalType": "uint256",
          "name": "time",
          "type": "uint256"
        }
      ],
      "name": "setDetails",
      "outputs": [],
      "stateMutability": "payable",
      "type": "function"
    },
    {
      "inputs": [
        {
          "internalType": "address",
          "name": "",
          "type": "address"
        }
      ],
      "name": "startTime",
      "outputs": [
        {
          "internalType": "uint256",
          "name": "",
          "type": "uint256"
        }
      ],
      "stateMutability": "view",
      "type": "function"
    },
    {
      "inputs": [
        {
          "internalType": "address",
          "name": "",
          "type": "address"
        },
        {
          "internalType": "uint256",
          "name": "",
          "type": "uint256"
        }
      ],
      "name": "wakeUpStatus",
      "outputs": [
        {
          "internalType": "bool",
          "name": "",
          "type": "bool"
        }
      ],
      "stateMutability": "view",
      "type": "function"
    },
    {
      "inputs": [
        {
          "internalType": "address",
          "name": "",
          "type": "address"
        }
      ],
      "name": "wakeUpTime",
      "outputs": [
        {
          "internalType": "uint256",
          "name": "",
          "type": "uint256"
        }
      ],
      "stateMutability": "view",
      "type": "function"
    },
    {
      "inputs": [
        {
          "internalType": "address",
          "name": "addr",
          "type": "address"
        }
      ],
      "name": "weekCompleted",
      "outputs": [
        {
          "internalType": "bool",
          "name": "",
          "type": "bool"
        }
      ],
      "stateMutability": "view",
      "type": "function"
    },
    {
      "inputs": [],
      "name": "weekTime",
      "outputs": [
        {
          "internalType": "uint256",
          "name": "",
          "type": "uint256"
        }
      ],
      "stateMutability": "view",
      "type": "function"
    }
  ],
  "bytecode": "0x60806040526007600155336000806101000a81548173ffffffffffffffffffffffffffffffffffffffff021916908373ffffffffffffffffffffffffffffffffffffffff160217905550610a8b806100586000396000f3fe6080604052600436106100c25760003560e01c80639747d6bf1161007f578063dea18dec11610059578063dea18dec1461027e578063df47a63414610295578063f4f0e1ae146102c0578063fbbb051e146102fd576100c2565b80639747d6bf146101ff578063cacd73d514610216578063d7841ee314610241576100c2565b806314ba5c09146100c75780631caaab79146100f25780632cce17f81461011d578063557ed1ba1461015a5780636e1dc66e146101855780637201b8e1146101c2575b600080fd5b3480156100d357600080fd5b506100dc610319565b6040516100e991906107a1565b60405180910390f35b3480156100fe57600080fd5b50610107610379565b60405161011491906107a1565b60405180910390f35b34801561012957600080fd5b50610144600480360381019061013f919061084b565b610381565b60405161015191906108a6565b60405180910390f35b34801561016657600080fd5b5061016f6103ba565b60405161017c91906107a1565b60405180910390f35b34801561019157600080fd5b506101ac60048036038101906101a791906108c1565b6103c2565b6040516101b991906107a1565b60405180910390f35b3480156101ce57600080fd5b506101e960048036038101906101e491906108c1565b6103da565b6040516101f691906108a6565b60405180910390f35b34801561020b57600080fd5b506102146104c5565b005b34801561022257600080fd5b5061022b610570565b60405161023891906107a1565b60405180910390f35b34801561024d57600080fd5b50610268600480360381019061026391906108c1565b610576565b60405161027591906107a1565b60405180910390f35b34801561028a57600080fd5b5061029361058e565b005b3480156102a157600080fd5b506102aa61065a565b6040516102b791906107a1565b60405180910390f35b3480156102cc57600080fd5b506102e760048036038101906102e291906108c1565b6106a1565b6040516102f491906107a1565b60405180910390f35b610317600480360381019061031291906108ee565b6106b9565b005b600062015180600460003373ffffffffffffffffffffffffffffffffffffffff1673ffffffffffffffffffffffffffffffffffffffff168152602001908152602001600020544261036a919061094a565b61037491906109ad565b905090565b600047905090565b6002602052816000526040600020816007811061039d57600080fd5b60209182820401919006915091509054906101000a900460ff1681565b600042905090565b60046020528060005260406000206000915090505481565b600080600090505b600260008473ffffffffffffffffffffffffffffffffffffffff1673ffffffffffffffffffffffffffffffffffffffff1681526020019081526020016000205060078110156104ba5760001515600260008573ffffffffffffffffffffffffffffffffffffffff1673ffffffffffffffffffffffffffffffffffffffff16815260200190815260200160002082600781106104805761047f6109de565b5b602091828204019190069054906101000a900460ff161515036104a75760009150506104c0565b80806104b290610a0d565b9150506103e2565b50600190505b919050565b60076104cf610319565b101580156104e257506104e1336103da565b5b1561056e573373ffffffffffffffffffffffffffffffffffffffff166108fc600360003373ffffffffffffffffffffffffffffffffffffffff1673ffffffffffffffffffffffffffffffffffffffff168152602001908152602001600020549081150290604051600060405180830381858888f1935050505015801561056c573d6000803e3d6000fd5b505b565b60015481565b60056020528060005260406000206000915090505481565b6001600260003373ffffffffffffffffffffffffffffffffffffffff1673ffffffffffffffffffffffffffffffffffffffff16815260200190815260200160002062015180600460003373ffffffffffffffffffffffffffffffffffffffff1673ffffffffffffffffffffffffffffffffffffffff168152602001908152602001600020544261061e919061094a565b61062891906109ad565b60078110610639576106386109de565b5b602091828204019190066101000a81548160ff021916908315150217905550565b6000600360003373ffffffffffffffffffffffffffffffffffffffff1673ffffffffffffffffffffffffffffffffffffffff16815260200190815260200160002054905090565b60036020528060005260406000206000915090505481565b80600460003373ffffffffffffffffffffffffffffffffffffffff1673ffffffffffffffffffffffffffffffffffffffff1681526020019081526020016000208190555034600360003373ffffffffffffffffffffffffffffffffffffffff1673ffffffffffffffffffffffffffffffffffffffff1681526020019081526020016000208190555080600560003373ffffffffffffffffffffffffffffffffffffffff1673ffffffffffffffffffffffffffffffffffffffff1681526020019081526020016000208190555050565b6000819050919050565b61079b81610788565b82525050565b60006020820190506107b66000830184610792565b92915050565b600080fd5b600073ffffffffffffffffffffffffffffffffffffffff82169050919050565b60006107ec826107c1565b9050919050565b6107fc816107e1565b811461080757600080fd5b50565b600081359050610819816107f3565b92915050565b61082881610788565b811461083357600080fd5b50565b6000813590506108458161081f565b92915050565b60008060408385031215610862576108616107bc565b5b60006108708582860161080a565b925050602061088185828601610836565b9150509250929050565b60008115159050919050565b6108a08161088b565b82525050565b60006020820190506108bb6000830184610897565b92915050565b6000602082840312156108d7576108d66107bc565b5b60006108e58482850161080a565b91505092915050565b600060208284031215610904576109036107bc565b5b600061091284828501610836565b91505092915050565b7f4e487b7100000000000000000000000000000000000000000000000000000000600052601160045260246000fd5b600061095582610788565b915061096083610788565b92508282039050818111156109785761097761091b565b5b92915050565b7f4e487b7100000000000000000000000000000000000000000000000000000000600052601260045260246000fd5b60006109b882610788565b91506109c383610788565b9250826109d3576109d261097e565b5b828204905092915050565b7f4e487b7100000000000000000000000000000000000000000000000000000000600052603260045260246000fd5b6000610a1882610788565b91507fffffffffffffffffffffffffffffffffffffffffffffffffffffffffffffffff8203610a4a57610a4961091b565b5b60018201905091905056fea2646970667358221220700d4468e1044f817c0c811751c5b689d48f04bacbf59f9490cba046c46e0e2964736f6c63430008110033",
  "linkReferences": {},
  "deployedLinkReferences": {}
}